:100000000C9434000C943E000C943E000C943E0082
:100010000C943E000C943E000C943E000C943E0068
:100020000C943E000C943E000C943E000C943E0058
:100030000C943E000C943E000C943E000C943E0048
:100040000C943E000C943E000C943E000C943E0038
:100050000C943E000C943E000C943E000C943E0028
:100060000C943E000C943E0011241FBECFEFD8E04C
:10007000DEBFCDBF0E9440000C9459000C940000DC
:1000800084E084B994E08BEF95B92FE73DE345E137
:10009000215030404040E1F700C0000085B92FEF0B
:1000A00038E24EE0215030404040E1F700C000000F
:0600B000EBCFF894FFCF36
:00000001FF
