:100000000C9434000C943E000C943E000C943E0082
:100010000C943E000C943E000C943E000C943E0068
:100020000C943E000C943E000C943E000C943E0058
:100030000C943E000C943E000C943E000C943E0048
:100040000C943E000C943E000C943E000C943E0038
:100050000C943E000C943E000C943E000C943E0028
:100060000C943E000C943E0011241FBECFEFD8E04C
:10007000DEBFCDBF0E9456000C947C000C940000A3
:10008000E0E8F0E08081826A8083E1E8F0E080814E
:100090008B6180830895EAE7F0E08081836C808340
:1000A000ECE7F0E080818064808308950F2EF6E80D
:1000B000CF2ED12CF02D0F2EF8E8EF2EF3E1FF2EEE
:1000C000F02D08E710E0C8E8D0E00E9440000E9450
:1000D0004B00F601F182E082219AF8018081918142
:1000E00099838883FFEF29E688E1F1502040804022
:0C00F000E1F700C00000E9CFF894FFCF5A
:00000001FF
