S010000050574D5F6F6E6C792E73726563FF
S11300000C9434000C9446000C9446000C94460066
S11300100C9446000C9446000C9446000C94460044
S11300200C9446000C9446000C9446000C94460034
S11300300C9446000C9446000C9446000C94460024
S11300400C9446000C9446000C9446000C94460014
S11300500C9446000C9446000C9446000C94460004
S11300600C9446000C94460011241FBECFEFD8E038
S1130070DEBFCDBF21E0A0E0B1E001C01D92A03001
S1130080B207E1F70E9448000C947E000C94000033
S1130090219A389882E8809380008AE180938100D5
S11300A08FE097E29093870080938600EEE7F0E07C
S11300B0808181608083ECE7F0E08081808387E841
S11300C080937A0010927B00EAE7F0E048E750E082
S11300D0C8E8D0E028E833E16AE870E08081806411
S11300E08083808184FFFDCFDA018D919C913983D7
S11300F02883DB0111961C921E92F0CFF894FFCF57
S9030000FC
