:100000000C9434000C9446000C9446000C9446006A
:100010000C9446000C9446000C9446000C94460048
:100020000C9446000C9446000C9446000C94460038
:100030000C9446000C9446000C9446000C94460028
:100040000C947C000C9446000C9446000C944600E2
:100050000C9446000C9446000C9446000C94460008
:100060000C9446000C94460011241FBECFEFD8E03C
:10007000DEBFCDBF21E0A0E0B1E001C01D92A23003
:10008000B207E1F70E9448000C94BD000C940000F8
:10009000569A229A17B88FEF88B981E080936E0044
:1000A000789414BC85E085BD80E480937C0082E870
:1000B00080937A0016BCEAE7F0E080818064808358
:1000C000808184FFFDCF8081806180833299F5CF6C
:1000D0002FEF83EC99E0215080409040E1F700C081
:1000E0000000809100019091010121E0822790930E
:1000F000010180930001E1CF1F920F920FB60F9282
:1001000011242F938F939F9380910001909101016F
:100110008130910529F583E48093B0008FE08093CE
:10012000B10017C05E9A2B9A329913C02FEF83EC5F
:1001300099E0215080409040E1F700C0000080919C
:1001400000019091010121E08227909301018093A9
:1001500000018091000190910101019719F304C001
:10016000892B11F45E9815B816BC9F918F912F9131
:0E0170000F900FBE0F901F901895F894FFCFC0
:00000001FF
