:100000000C9434000C943E000C943E000C943E0082
:100010000C943E000C943E000C943E000C943E0068
:100020000C943E000C943E000C943E000C943E0058
:100030000C943E000C943E000C943E000C943E0048
:100040000C943E000C943E000C943E000C943E0038
:100050000C943E000C943E000C943E000C943E0028
:100060000C943E000C943E0011241FBECFEFD8E04C
:10007000DEBFCDBF0E9452000C942D010C940000F5
:1000800084B5826884BD85B5846085BD0895EAE73E
:10009000F0E08081836C8083ECE7F0E08081806415
:1000A000808308951FE0C8E7D0E00F2EF9E0DF2E2F
:1000B000F02D0F2EF3E0EF2EF02D0F2EF6E0FF2E99
:1000C000F02D0CE00E9440000E94470014B9888186
:1000D000998187BD87B587B5833300F5D5B88FE3A0
:1000E0009FE10197F1F700C00000E5B88FE39FE1C1
:1000F0000197F1F700C00000F5B88FE39FE1019789
:10010000F1F700C0000005B98FE39FE10197F1F717
:1001100000C000008881998187BDD4CF87B5833323
:1001200078F187B5893760F5D5B89FEF26E781E08C
:10013000915020408040E1F700C00000E5B89FEFFB
:1001400026E781E0915020408040E1F700C00000A8
:10015000F5B89FEF26E781E0915020408040E1F71D
:1001600000C0000005B99FEF26E781E091502040D4
:100170008040E1F700C000008881998187BDA2CF4F
:1001800087B5893778F187B5873960F5D5B89FEF9E
:1001900021EE84E0915020408040E1F700C0000053
:1001A000E5B89FEF21EE84E0915020408040E1F7D8
:1001B00000C00000F5B89FEF21EE84E09150204090
:1001C0008040E1F700C0000005B99FEF21EE84E018
:1001D000915020408040E1F700C000008881998163
:1001E00087BD70CF87B5873978F187B5893C60F5D1
:1001F000D5B89FEF23EC89E0915020408040E1F793
:1002000000C00000E5B89FEF23EC89E0915020404A
:100210008040E1F700C00000F5B89FEF23EC89E0D3
:10022000915020408040E1F700C0000005B99FEFE9
:1002300023EC89E0915020408040E1F700C00000AD
:100240008881998187BD3ECF87B5893C08F43ACF34
:0E02500015B88881998187BD35CFF894FFCF0E
:00000001FF
