:100000000C9434000C9446000C9446000C9446006A
:100010000C9446000C9446000C9446000C94460048
:100020000C9446000C9446000C9446000C94460038
:100030000C9446000C9446000C9446000C94460028
:100040000C9469000C9446000C9446000C944600F5
:100050000C9446000C9446000C9446000C94460008
:100060000C9446000C94460011241FBECFEFD8E03C
:10007000DEBFCDBF21E0A0E0B1E001C01D92A23003
:10008000B207E1F70E9448000C9484000C94000031
:10009000569A17B884E088B981E080936E0078940E
:1000A00014BC85E085BD3299FECF2FEF83EC99E03B
:1000B000215080409040E1F700C000008091000195
:1000C0009091010121E0822790930101809300012A
:1000D000EACF1F920F920FB60F9211248F939F9326
:1000E00080910001909101018130910519F480E423
:1000F0008BB903C0892B09F41BB89F918F910F9086
:0C0100000FBE0F901F901895F894FFCFD1
:00000001FF
