:100000000C9434000C9446000C9446000C9446006A
:100010000C9446000C9446000C9446000C94460048
:100020000C9446000C9446000C9446000C94460038
:100030000C9446000C9446000C9446000C94460028
:100040000C9454000C9446000C9446000C9446000A
:100050000C9446000C9446000C9446000C94460008
:100060000C9446000C94460011241FBECFEFD8E03C
:10007000DEBFCDBF21E0A0E0B1E001C01D92A13004
:10008000B207E1F70E9448000C9471000C94000044
:1000900084E084B985B981E080936E0016BC7894C1
:1000A00014BC85E085BDFFCF1F920F920FB60F9253
:1000B00011248F9316BC809100018F5F8093000103
:1000C000823109F415B8809100018C3221F484E06A
:1000D00085B9109200018F910F900FBE0F901F9065
:0600E0001895F894FFCF13
:00000001FF
