S00F0000444134415F4A532E737265631F
S11300000C9434000C9446000C9446000C94460066
S11300100C9472000C9446000C9446000C94460018
S11300200C9446000C9446000C9446000C94460034
S11300300C9446000C9446000C9446000C94460024
S11300400C9446000C9446000C9446000C94460014
S11300500C9446000C9446000C9446000C94460004
S11300600C9446000C94460011241FBECFEFD8E038
S1130070DEBFCDBF21E0A0E0B1E001C01D92A330FE
S1130080B207E1F70E9448000C94CA000C940000E7
S11300908FEF84B917B895B185B9E0E8F0E08081B5
S11300A0826A8083E1E8F0E080818A61808380E174
S11300B097E29093870080938600419A82E0809330
S11300C0680080936C0081E080937E0080E48093DC
S11300D07C00EAE7F0E080818768808310927B00EF
S11300E07894FFCF1F920F920FB60F9211242F9383
S11300F03F938F939F93EF93FF93329940C02FEFD9
S113010083EC99E0215080409040E1F700C000006A
S1130110329BFECF80910001813019F5299A2D98E8
S1130120EAE7F0E0808180648083808184FFFDCFF2
S1130130809178009091790093709093020180935C
S113014001019C01220F331F880F991F880F991FEB
S1130150880F991F820F931F9093890080938800C2
S113016008C0811106C01092890010928800299855
S11301702D9A9091000181E0892780930001FF91DD
S1130180EF919F918F913F912F910F900FBE0F9000
S10B01901F901895F894FFCFAD
S9030000FC
