:020000020000FC
:1000000004E004B905B910E017B908B9000046B119
:10001000409544704430D9F75BEF55B905D00FD007
:100020000ED018D005B9F3CF0AD009D008D007D028
:1000300006D005D004D003D002D001D0089510D04E
:100040000FD00ED00DD00CD00BD00AD009D008D0D4
:1000500007D0089505D004D003D002D001D0089570
:1000600002D001D0089505D004D003D002D001D031
:1000700008950F932F930FEF26E00000000000007B
:1000800000000000000000000A95B9F72A95A9F7C2
:060090002F910F9108956D
:00000001FF
