:100000000C9434000C9446000C9446000C9446006A
:100010000C9446000C9446000C9446000C94460048
:100020000C9446000C9446000C9446000C94460038
:100030000C9446000C9446000C9466000C94460008
:100040000C9446000C9446000C9446000C94460018
:100050000C9446000C9446000C9446000C94460008
:100060000C9446000C94460011241FBECFEFD8E03C
:10007000DEBFCDBF21E0A0E0B1E001C01D92A23003
:10008000B207E1F70E9448000C9496000C9400001F
:1000900084E084B985B917B888B982E084BD95E059
:1000A00095BD9FEF97BD80936E00789424E081E02A
:1000B00090E0329905C09093010180930001F9CF3F
:1000C00025B91092010110920001F3CF1F920F92F7
:1000D0000FB60F9211242F938F939F93809100015D
:1000E000909101010197D1F415B816BC80E090E021
:1000F00021E00BC0A89904C08C349105DCF308C042
:10010000019625BB8C34910519F0A89BF3CFF8CF4D
:1001100084E085B910920101109200019F918F91A6
:100120002F910F900FBE0F901F901895F894FFCF4E
:00000001FF
